:0400000080315228D1
:100008007E1480310B1F09280A2850282100111F4F
:100018000E280F2818282000111F13281428182824
:100028008231EE22803150282100101C1C281D2806
:1000380026282000101C2128222826288231362232
:10004800803150282100901F2A282B28342820008E
:10005800901F2F2830283428833185238031502859
:100068002100111C3828392842282000111C3D285D
:100078003E2842288231AF22803150282100101FAB
:100088004628472850282000101F4B284C28502865
:100098008231FC22803150287E100900803154289A
:1000A800F601F701F801F9012000BA01BB01BC0112
:1000B800BD01BE01BF01C001C1017E102000803119
:1000C80065288131C32180312000AE01AF010230A3
:1000D800AC000030AD008E120E12B001B10100303C
:1000E800200011180130AA002A0803197C287D284D
:1000F80086282E08013EAE0000302F3DAF00823129
:1001080075228031031020000E1E031403188D2859
:10011800902820000E16922820000E120130B007F9
:100128000030B13D3108803AA70083302702031D13
:100138009F28E9303002031CA228A3287328200036
:100148002F08A8002E08A700A735A80DA735A80DC9
:100158002708A0002808A1001030A2002730A3001B
:1001680081318621803120002108B7002008B6009F
:100178003708F5003608F4008331792380312000F0
:100188003635B800370DB9003908F5003808F400DD
:1001980082311D2280318331812380312000AB00E0
:1001A8002B080319D828D928E3288231D222803194
:1001B8000030F400F500833179238031EA283708CC
:1001C800F5003608F4008331792380310A30813113
:1001D800E2218031C03021001B052000A70021004A
:1001E8001C0820002707A800A901A90D2808B400A9
:1001F8002908B500003035020A3003193402031803
:10020800062907290E293808053EB8000030393D6F
:10021800B9001D2901303502003003193402031CCE
:10022800162917291D293808FB3EB800FF30393D2B
:10023800B9003908F5003808F40082311D228031F0
:100248008231E02280312000B201B30120002C0865
:10025800013EAC0000302D3DAD000130B20700304A
:10026800B33D3308803AA70083302702031D3E2997
:10027800E9303202031C412942292A29CF2880313A
:10028800522822008C018D018E013F3021008C0004
:10029800F0308D008B308E00173023008C0030300A
:1002A8008D0087308E003F3024008C00F0308D00A8
:1002B800FF308E002100951325008C018D018E01E1
:1002C800373026008C00F0308D00FF308E003F3034
:1002D80027008C00F0308D00FF308E000E303D007E
:1002E800A20013303C0095000D303D00A30027000C
:1002F800910192019301940195019601970198014A
:10030800990108002000A501A6012008210403196D
:100318008E298F29BE29A401A40A9B290130A03562
:10032800A10D890B93290130F4007408A407A11FBB
:100338009E299F2992290130A535A60D890BA02950
:1003480021082302031DAA2920082202031CAD2923
:10035800AE29B3292008A2022108A33B25140130A5
:10036800A136A00C890BB4290130A402031DBD29B4
:10037800BE299F292608A1002508A000080083316E
:10038800432381318131452181318231612281319B
:1003980082314C22813182319C22813183317D230B
:1003A8008131833122238131823189228131823125
:1003B8000022813183312D23813108002000A100E2
:1003C8002108A000A00DA00D21001D082000200676
:1003D8008339200621009D001D140630890BF2295F
:1003E800003221009D149D18FA29FB29F7291C08C1
:1003F800F5001B08F400080020009901FF30970061
:10040800FF3096001708F7001608F6008B30F40046
:100418000330F5008331522382312000101021006F
:10042800101420009013210090172030200098000D
:10043800080075082000A1007408A000A136A00CCF
:10044800A136A00C20082C0098007408033920005D
:10045800A0000530A035FF3E031D2E2A20352C00B4
:1004680097000800200010107708F1007608F000C7
:100478008231C122823120003A083B040319452AFF
:10048800462A4B2A3B088A003A080A0082310800AB
:10049800863025009A009B01990198016F30F4007D
:1004A8000330F50083315E238231F33025009E0549
:1004B80020001110210011140800403021009E0076
:1004C8009B019C019F0129309D002000101374306E
:1004D800F4000330F50083316423823121001017C2
:1004E800080020001110250018082000A000250091
:1004F80019082000A1002108F5002008F40043088D
:100508008A0042080A008231080020009E019D01ED
:100518009F0118309B009A018C30F4000330F500DD
:1005280083314C23823120009010A0309C000800B9
:1005380021001113843022009300863094006A3021
:10054800F4000330F5008331382382312000111381
:100558002100111708002000111025001808F200CA
:100568001908F3007308F1007208F000200043082E
:100578008A0042080A00823108002000181DC52A96
:10058800C62ACD2A1810710897007008960018140A
:10059800D12A7108970070089600080020001113EE
:1005A800780879040319D92ADA2ADF2A79088A000F
:1005B80078080A0082310800200010134408450416
:1005C8000319E72AE82AED2A45088A0044080A00A0
:1005D8008231080020001113780879040319F52ADC
:1005E800F62AFB2A79088A0078080A00823108006E
:1005F80020001013440845040319032B042B092B6E
:1006080045088A0044080A0083310800003402348F
:1006180000340034003400340034003452340334DD
:100628000034003489340234003400340034003497
:10063800793403344C34033400340034CF3025008B
:100648009E0580302C0099000C30980040309700AF
:1006580008008B10210015170030F4000030F50059
:1006680083315823833108007408750403193D2B1E
:100678003E2B422B7508F9007408F80008007A3000
:10068800210099009A012200960121009801080092
:1006980075082000BF007408BE0008007508200017
:1006A800BB007408BA00080075082000C10074086F
:1006B800C000080075082000C3007408C2000800C4
:1006C80075082000C5007408C40008007E1C6E2B45
:1006D8008331882B08007E1C732B8331892B0800FB
:1006E8007E1C782B83318A2B0800740820009B001D
:1006F80008008C302200970008002200150C0139F0
:1007080008002000901308000800080008000800EE
:020718000800D7
:020000040001F9
:06000E00BC3FFF3E9F3FD6
:00000001FF
